:1000000019C033C032C031C030C02FC02EC02DC087
:100010002CC02BC02AC029C028C027C056C025C06C
:1000200024C023C022C021C020C01FC01EC01DC0CC
:100030001CC01BC011241FBECFEFD4E0DEBFCDBF5C
:1000400012E0A0E0B1E0ECE7F1E002C005900D9213
:10005000A032B107D9F712E0A0E2B2E001C01D92D0
:10006000A132B107E1F769D085C0CACF209A259A9D
:10007000549A579A219A229A239A20982D985C98FC
:100080005F9A29982A9A82E084BD85E085BD83E045
:1000900087BDEEE6F0E080818260808308955C9AFF
:1000A0005F9AE0E0F1E003C0299A299808958081E1
:1000B000882311F02B9A01C02B982D9A2D983196F8
:1000C00081E0E036F80799F7EFCF1F920F920FB655
:1000D0000F9211248F939F93EF93FF932A9A5F9926
:1000E00002C090E002C05F9891E0809120028823D6
:1000F00021F0299A299810922002992311F02D9A23
:100100002D982A98E0E6F1E08081882311F02B9A5F
:1001100001C02B982D9A2D98319682E0E032F80795
:1001200099F781E080932002FF91EF919F918F9149
:100130000F900FBE0F901F90189598DFB0DF3B9A7D
:10014000789420E137E249E150E005C0CA01019707
:10015000F1F72150304021153105C1F7439A80E174
:1001600097E2FA013197F1F70197D9F7439820E127
:0C01700037E2ECCFF89400C0F894FFCF09
:10017C000101010101010101010101010101010163
:10018C000101010101010101010101010101010153
:10019C000101010101010101010101010101010143
:1001AC000101010101010101010101010101010133
:1001BC000101010101010101010101010101010123
:1001CC000101010101010101010101010101010113
:1001DC000000000000000000000000000000000013
:1001EC000000000000000000000000000000000003
:1001FC0000000000000000000000000000000000F3
:10020C0000000000000000000000000000000000E2
:10021C0000000000000000000000000000000000D2
:10022C0000000000000000000000000000000000C2
:10023C0000000000000000000000000000000000B2
:10024C0000000000000000000000000001000000A1
:10025C000000000000000000010000000000000091
:10026C000000000001000000000000000000000081
:10027C000100000000000000000000000100000070
:10028C000000000000000000010000000000000061
:00000001FF
