:1000000019C033C032C031C030C02FC02EC02DC087
:100010002CC02BC02AC029C028C027C026C025C09C
:1000200024C023C022C021C020C01FC01EC01DC0CC
:100030001CC01BC011241FBECFEFD4E0DEBFCDBF5C
:1000400012E0A0E0B1E0ECEBF1E002C005900D920F
:10005000A032B107D9F712E0A0E2B2E001C01D92D0
:10006000A032B107E1F756D0A5C0CACF209A259A91
:10007000549A579A219A229A239A28982D985C98F4
:100080005F9A29982A9A08955C9A5F9AE0E0F1E0D5
:1000900008C02B9A2D9A2D98319681E0E036F8070A
:1000A00059F080818823A9F72B982D9A2D983196A5
:1000B00081E0E036F807A9F7299A299808955F9911
:1000C00026C040E02A9890E020E030E00CC02B9A57
:1000D0002D9A2D989F5F289A28982F5F3F4F80E197
:1000E0002030380759F0903CB0F7E92FF0E0E05AA3
:1000F000FE4F8081882359F72B98EACF2A9A299AB4
:100100002998442319F02D9A2D98089508955F9801
:1001100041E0D8CFABDFB8DF3B9A71E049E150E076
:100120005F9942C060E02A9890E020E030E00CC087
:100130002B9A2D9A2D989F5F289A28982F5F3F4FD2
:1001400080E12030380759F0903CB0F7E92FF0E01B
:10015000E05AFE4F8081882359F72B98EACF2A9ADC
:10016000299A2998662319F12D9A2D9820E030E0DC
:10017000CA010197F1F72F5F3F4F87E2203138071F
:10018000B9F7439A1092150220E030E0CA010197B6
:10019000F1F72F5F3F4F87E220313807B9F74398D7
:1001A000709318025F9BBECF5F9861E0BCCF20E0E8
:0C01B00030E0DECFF89400C0F894FFCFE0
:1001BC000101010101010101010101010101010123
:1001CC000101010101010101010101010101010113
:1001DC000101010101010101010101010101010103
:1001EC0001010101010101010101010101010101F3
:1001FC0001010101010101010101010101010101E3
:10020C0001010101010101010101010101010101D2
:10021C0000000000000000000000000000000000D2
:10022C0000000000000000000000000000000000C2
:10023C0000000000000000000000000000000000B2
:10024C0000000000000000000000000000000000A2
:10025C000000000000000000000000000000000092
:10026C000000000000000000000000000000000082
:10027C000000000000000000000000000100000071
:10028C000000000000000000010000000000000061
:10029C000000000001000000000000000000000051
:1002AC000100000000000000000000000100000040
:1002BC000000000000000000010000000000000031
:1002CC000000000000000000000000000000000022
:00000001FF
